:100000000C948A000C949F000C949F000C949F0009
:100010000C949F000C949F000C949F000C949F00E4
:100020000C949F000C949F000C949F000C949F00D4
:100030000C949F000C949F000C949F000C949F00C4
:100040000C949F000C949F000C949F000C949F00B4
:100050000C949F000C949F000C949F000C949F00A4
:100060000C949F000C949F009902B9029C02B90263
:100070009F02B902A202B902A502B902A802B902FE
:10008000AB02B902AE02B902B102B902B402B902BE
:10009000B70207634236B79BD8A71A39685618AE1D
:1000A000BAAB558C1D3CB7CC5763BD6DEDFD753EAD
:1000B000F6177231BF000000803F08000000BE92BA
:1000C0002449123EABAAAA2ABECDCCCC4C3E00009D
:1000D0000080BEABAAAAAA3E00000000BF0000003C
:1000E000803F0000000000084178D3BB4387D11354
:1000F0003D190E3CC3BD4282AD2B3E68EC8276BEFC
:10010000D98FE1A93E4C80EFFFBE01C4FF7F3F00C5
:100110000000000011241FBECFEFD8E0DEBFCDBF2E
:1001200011E0A0E0B1E0EEEAF6E102C005900D9228
:10013000A231B107D9F70E94DB060C94550B0C9441
:1001400000001092C50087E68093C400E0ECF0E068
:1001500080818D7F8083E1ECF0E0808188698083FD
:1001600080818B7F8083E2ECF0E0808186608083F9
:1001700008958091C00085FD03C00E946501F9CFFC
:1001800088E78093C60008958091C00087FF08C06B
:100190008091C00085FF04C08091C6008093C60096
:1001A00008958091C00087FFFCCF8091C60008951C
:1001B000EF92FF920F931F93CF93DF93182FE92EA7
:1001C000062F0E94D100F12EC12FDE2D10E001502C
:1001D00011092C2F2F198A3041F41882DF91CF9109
:1001E0001F910F91FF90EF90089530E02017310795
:1001F000A4F789930E94D100ECCF9091C00095FFA5
:10020000FCCF8093C6000895CF93DF93EC018991D2
:10021000882319F00E94FD00FACFDF91CF91089555
:100220000F931F93CF93DF93CDB7DEB72A970FB607
:10023000F894DEBF0FBECDBF8C011A86009721F463
:1002400080E30E94FD0018C097FF06C08DE20E9467
:10025000FD00119501951109FE013A962AE030E062
:10026000C801B9010E942F07805D82938B01672B23
:10027000B9F7CF010E9404012A960FB6F894DEBFA9
:100280000FBECDBFDF91CF911F910F9108952FEF3A
:1002900089E698E1215080409040E1F700C00000DD
:1002A0002D9A2FEF83EC99E0215080409040E1F7A8
:1002B00000C000002D982FEF89E698E12150804082
:1002C0009040E1F700C0000008952FEF89E698E123
:1002D000215080409040E1F700C000002D9A2FEFA0
:1002E00083EC99E0215080409040E1F700C000008D
:1002F0002D982FEF83EC99E0215080409040E1F75A
:1003000000C000002D9A2FEF83EC99E0215080402F
:100310009040E1F700C000002D982FEF89E698E1AA
:10032000215080409040E1F700C0000008952FEF79
:1003300089E698E1215080409040E1F700C000003C
:100340002D9A2FEF83EC99E0215080409040E1F707
:1003500000C000002D982FEF83EC99E021508040E1
:100360009040E1F700C000002D9A2FEF83EC99E058
:10037000215080409040E1F700C000002D982FEF01
:1003800083EC99E0215080409040E1F700C00000EC
:100390002D9A2FEF83EC99E0215080409040E1F7B7
:1003A00000C000002D982FEF89E698E12150804091
:1003B0009040E1F700C00000089594B19C6294B9A8
:1003C0002498837080658CBD8CB5442311F08062C5
:1003D00001C08F7D8CBD8DB5611102C08E7F01C0C3
:1003E00081608DBD08958EBD0DB407FEFDCF0895CB
:1003F0000DB407FEFDCF8EB508958EBD0DB407FE7A
:10040000FDCF8EB5089588E48093B8001092B900AE
:1004100008958091BC0087FFFCCF089584EA809303
:10042000BC000C94090284E98093BC008091BC005C
:1004300084FDFCCF08958093BB0084E88093BC00CA
:100440000C94090284EC8093BC000E940902809104
:10045000BB00089584E88093BC000E94090280914B
:10046000BB000895880F862B0C941B028091B90065
:100470000895EF92FF920F931F93CF93DF93EC01B8
:100480000E9403020E940E020E9436028830E1F5AB
:1004900060E087E70E9432020E9436028831A1F5AF
:1004A0008AEA0E941B020E943602883269F50E9485
:1004B00013020E940E020E943602883029F561E084
:1004C00087E70E9432020E9436028034E9F48AEA09
:1004D000E82EF12C0E942202182F0E94360280354D
:1004E00099F48EEBE816F10441F40E942A02082FD9
:1004F0000E943602883581F007C00E942202082F30
:100500000E943602803541F0DF91CF911F910F910B
:10051000FF90EF900C943602802F90E0912BF70122
:10052000EA5AF109E531F10520F5EC5CFF4F0C9436
:100530008407998388831DC09B838A831AC09D8307
:100540008C8317C09F838E8314C09987888711C0BE
:100550009B878A870EC09D878C870BC09F878E875D
:1005600008C0998B888B05C09B8B8A8B02C09D8BA2
:100570008C8B82E0E80EF11C80ECE816F10409F0A7
:10058000A9CF0E94130280E0DF91CF911F910F91BC
:10059000FF90EF9008950F931F93CF93DF938C01FB
:1005A0000E9403020E940E020E943602883009F067
:1005B00053C060E087E70E9432020E943602883111
:1005C00009F04AC084EF0E941B020E943602883262
:1005D00009F042C08EE20E941B020E94360288325D
:1005E000D9F50E9413028FE496E40197F1F700C059
:1005F00000000E940E020E943602883069F560E019
:1006000087E70E9432020E943602883129F586EF80
:100610000E941B020E9436028832F1F40E941302EB
:100620000E940E020E9436028830B1F461E087E732
:100630000E9432020E943602803471F40E9422022B
:10064000D82F0E943602803539F40E942A02C82F22
:100650000E943602883531F0DF91CF911F910F91C2
:100660000C9436020E9413028C2F90E09D2BF8010F
:100670009183808380E0DF91CF911F910F91089546
:10068000CF92DF92EF92FF920F931F93CF93DF935E
:10069000EB01FA0122853385821B930B9C01A08517
:1006A000B1850E948A076B017C018FE0F594E79485
:1006B000D794C7948A95D1F762897389CB01770F54
:1006C000AA0BBB0BBC01CD012BE0660F771F881F67
:1006D000991F2A95D1F7248935898901330F220B77
:1006E000330BA90198012C0D3D1D4E1D5F1D0E946D
:1006F0006507C20ED31EE41EF51EC882D982EA82A7
:10070000FB8288E0C80ED11CE11CF11CC701B601B8
:1007100034E095958795779567953A95D1F70E943E
:10072000D70820E030E040E251E40E942D08DF913C
:10073000CF911F910F91FF90EF90DF90CF90089590
:10074000DF92EF92FF920F931F93CF93DF93F82ED8
:10075000EB010E9403020E940E020E9436028830C2
:1007600009F080C060E087E70E9432020E943602F2
:10077000883109F077C084EF0E941B020E94360284
:10078000883209F06FC00F2D10E0C80136E0880FE5
:10079000991F3A95E1F784630E941B020E9436027A
:1007A000883209F05FC00E94130221E0F216A9F01E
:1007B000F21670F082E0F816A9F093E0F91218C072
:1007C0009FEB2EE381E0915020408040E1F70EC086
:1007D0008FE496E40197F1F709C08FE295E701975E
:1007E000F1F704C08FEE92ED0197F1F700C0000021
:1007F0000E940E020E9436028830A1F560E087E771
:100800000E9432020E943602883161F586EF0E9412
:100810001B020E943602883229F50E9413020E94B0
:100820000E020E9436028830E9F461E087E70E94F8
:1008300032020E9436028034A9F40E942202D82E8D
:100840000E943602803571F40E942202F82E0E9426
:100850003602803539F40E942A02E82E0E943602C0
:10086000883549F0DF91CF911F910F91FF90EF9064
:10087000DF900C9436020E9413028F2D90E09D2988
:10088000A0E0B0E0BA2FA92F982F88278E2928E062
:1008900030E0201B310B04C0B695A795979587953E
:1008A0002A95D2F788839983AA83BB8380E0DF915E
:1008B000CF911F910F91FF90EF90DF9008954F928D
:1008C0005F926F927F928F929F92AF92BF92CF92E0
:1008D000DF92EF92FF920F931F93CF93DF93CDB7E9
:1008E000DEB729970FB6F894DEBF0FBECDBF698380
:1008F0007A838B839C832987F801DA01CD90DD9080
:10090000ED90FC90B0EACB1ABFE0DB0AE108F108F9
:10091000A7019601C701B6010E9413072B013C01F4
:10092000ACE07594679457944794AA95D1F70081E9
:100930001181A481B5810E94A4074B015C01BDE037
:10094000B594A79497948794BA95D1F7A485B58563
:10095000A30192010E94A407BB2797FDB095AB2F7E
:10096000880D991DAA1DBB1D0296A11DB11D32E067
:10097000B595A795979587953A95D1F79C01AD01C7
:1009800030584F4F5F4FA681B7810E9499074B01A6
:100990005C014FE0B694A794979487944A95D1F759
:1009A000A685B785A30192010E94A4079B01AC0113
:1009B0006BE055954795379527956A95D1F72D8327
:1009C0003E834F835887A281B381A70196010E947D
:1009D000A407DC01CB017BE0B595A795979587959A
:1009E0007A95D1F72D813E814F815885820F931FD3
:1009F000A41FB51F012E000C220B330BE2E0000FE9
:100A0000111F221F331FEA95D1F7080F191F2A1F44
:100A10003B1F098404C0000F111F221F331F0A94BB
:100A2000D2F70E5F1F4F2F4F3F4FF2E035952795BE
:100A300017950795FA95D1F789819A81AB81BC8189
:100A4000801B910BA20BB30B9C01AD0180E593ECD5
:100A5000A0E0B0E0BC01CD01098404C09595879564
:100A6000779567950A94D2F70E94130797FD0BC0FC
:100A7000660F771F881F991FA50194010E944307E5
:100A800049015A010AC0A50194010E944307490186
:100A90005A01880C991CAA1CBB1C9927B7FC9A9573
:100AA0008B2D7A2D692D9B01AC010E9413079B01B0
:100AB000AC01AEEDBBE00E9499076B017C01A3E4A1
:100AC000B3EEA50194010E94A707BB2797FDB0953F
:100AD000AB2F6701FF24D7FCF094EF2C8C0D9D1DEC
:100AE000AE1DBF1D8153914FAF4FBF4F44E0B59531
:100AF000A795979587954A95D1F7BC01CD01680DCB
:100B0000791D8A1D9B1D29960FB6F894DEBF0FBE76
:100B1000CDBFDF91CF911F910F91FF90EF90DF90AC
:100B2000CF90BF90AF909F908F907F906F905F908D
:100B30004F900895DF92EF92FF920F931F93CF9300
:100B4000DF93CDB7DEB72A970FB6F894DEBF0FBE9E
:100B5000CDBFD82E7B018A01CE0109960E94CB021F
:100B600081112AC0BE016B5F7F4F8D2D0E94A003B3
:100B7000811124C019821A821B821C82A801BE0125
:100B80006F5F7F4F89859A850E944003F7016083DC
:100B90007183828393836D817E818F8198852D2DD2
:100BA000AE014F5F5F4F0E945F04F701648375835E
:100BB0008683978380E003C081E001C082E02A96AB
:100BC0000FB6F894DEBF0FBECDBFDF91CF911F915E
:100BD0000F91FF90EF90DF9008950E94D70823ECCB
:100BE00037EC45EF5BE30E94630908950E94D70844
:100BF00020E836EE45EC57E40E942D082EEA3CED45
:100C000042E45EE30E94D0099B01AC0160E070E029
:100C100080E89FE30E94C00720E03AE24DE257E4FB
:100C20000E9463090E949F08CB010895FC01A281E4
:100C3000B3814C9181E090E09C01068002C0220FBC
:100C4000331F0A94E2F7242B2C93A281B3814C9199
:100C50009C01048002C0220F331F0A94E2F7242B68
:100C60002C93A281B3814C919C01058002C0220F7C
:100C7000331F0A94E2F7242B2C93A081B1813C917D
:100C8000AC01068002C0440F551F0A94E2F7242FDE
:100C9000209523232C93A081B1813C91AC01048049
:100CA00002C0440F551F0A94E2F7242F20952323F6
:100CB0002C93A081B1812C91058002C0880F991FCF
:100CC0000A94E2F7809582238C930895EF92FF9225
:100CD0000F931F93CF93DF93FC0127E030E0062FA3
:100CE00010E041E050E0A081B1816681C801022E90
:100CF00002C0959587950A94E2F780FF08C07C9121
:100D0000CA0101C0880F6A95EAF7872B0AC09C9137
:100D1000EA0102C0CC0FDD1F6A95E2F78C2F8095A7
:100D200089238C93C081D181688181E090E0DA01D0
:100D3000048002C0AA0FBB1F0A94E2F7A62BA88367
:100D4000D5E0DA95F1F70000E080F180E701A881B5
:100D5000EA01048002C0CC0FDD1F0A94E2F77C2F69
:100D600070957A23D7017C932150310908F0BBCFCD
:100D7000A081B1814C919C01058002C0220F331FDC
:100D80000A94E2F7242B2C93C5E0CA95F1F70000F2
:100D9000A081B1812C91058002C0880F991F0A940F
:100DA000E2F7809582238C93DF91CF911F910F9171
:100DB000FF90EF900895CF93DF93CDB7DEB72797DD
:100DC0000FB6F894DEBF0FBECDBF8FEF84B915B854
:100DD00087E0E0E0F1E0DE01119601900D928A9546
:100DE000E1F7CE0101960E94160611E00AE015B95E
:100DF000812F602F0E942307E92FF0E0E95FFE4F6B
:100E00006081CE0101960E946606110F113108F033
:100E100011E02FEF83ED90E3215080409040E1F707
:100E200000C00000E4CFDB018F939F930E949907DD
:100E3000BF91AF91A29F800D911DA39F900DB29F76
:100E4000900D11240895991B79E004C0991F9617FD
:100E500008F0961B881F7A95C9F78095089597FB2F
:100E6000072E16F4009407D077FD09D00E94AC0736
:100E700007FC05D03EF4909581959F4F089570959D
:100E800061957F4F0895A1E21A2EAA1BBB1BFD019D
:100E90000DC0AA1FBB1FEE1FFF1FA217B307E40759
:100EA000F50720F0A21BB30BE40BF50B661F771FB1
:100EB000881F991F1A9469F7609570958095909591
:100EC0009B01AC01BD01CF010895052E97FB1EF4D7
:100ED00000940E947C0757FD07D00E94430707FC3F
:100EE00003D04EF40C947C07509540953095219595
:100EF0003F4F4F4F5F4F0895909580957095619546
:100F00007F4F8F4F9F4F0895EE0FFF1F0590F49175
:100F1000E02D0994A29FB001B39FC001A39F700D63
:100F2000811D1124911DB29F700D811D1124911DF1
:100F300008950E948A07A59F900DB49F900DA49FCD
:100F4000800D911D11240895B7FF0C9499070E94FC
:100F50009907821B930B0895AA1BBB1B51E107C085
:100F6000AA1FBB1FA617B70710F0A61BB70B881F39
:100F7000991F5A95A9F780959095BC01CD010895C8
:100F80005058BB27AA270E94D8070C9429090E9411
:100F90001B0938F00E94220920F039F49F3F19F410
:100FA00026F40C9418090EF4E095E7FB0C94120952
:100FB000E92F0E943A0958F3BA17620773078407AA
:100FC000950720F079F4A6F50C945C090EF4E095F1
:100FD0000B2EBA2FA02D0B01B90190010C01CA01F3
:100FE000A0011124FF27591B99F0593F50F4503E9E
:100FF00068F11A16F040A22F232F342F4427585F90
:10100000F3CF469537952795A795F0405395C9F7A7
:101010007EF41F16BA0B620B730B840BBAF091505F
:10102000A1F0FF0FBB1F661F771F881FC2F70EC0FE
:10103000BA0F621F731F841F48F4879577956795D1
:10104000B795F7959E3F08F0B0CF9395880F08F0BD
:101050009927EE0F9795879508950E9441080C9463
:1010600029090E94220958F00E941B0940F029F426
:101070005F3F29F00C94120951110C945D090C94F6
:1010800018090E943A0968F39923B1F3552391F3A3
:10109000951B550BBB27AA2762177307840738F0E7
:1010A0009F5F5F4F220F331F441FAA1FA9F335D044
:1010B0000E2E3AF0E0E832D091505040E695001CF8
:1010C000CAF72BD0FE2F29D0660F771F881FBB1FB2
:1010D000261737074807AB07B0E809F0BB0B802D90
:1010E000BF01FF2793585F4F3AF09E3F510578F0BC
:1010F0000C9412090C945D095F3FE4F3983ED4F31D
:10110000869577956795B795F7959F5FC9F7880F8F
:10111000911D9695879597F90895E1E0660F771FE1
:10112000881FBB1F621773078407BA0720F0621B72
:10113000730B840BBA0BEE1F88F7E09508950E949D
:10114000A6086894B1110C945D0908950E944209A3
:1011500088F09F5798F0B92F9927B751B0F0E1F078
:10116000660F771F881F991F1AF0BA95C9F714C028
:10117000B13091F00E945C09B1E008950C945C09D3
:10118000672F782F8827B85F39F0B93FCCF3869561
:1011900077956795B395D9F73EF4909580957095BE
:1011A00061957F4F8F4F9F4F0895E89409C097FB3B
:1011B0003EF490958095709561957F4F8F4F9F4F2E
:1011C0009923A9F0F92F96E9BB279395F695879572
:1011D00077956795B795F111F8CFFAF4BB0F11F435
:1011E00060FF1BC06F5F7F4F8F4F9F4F16C08823DC
:1011F00011F096E911C0772321F09EE8872F762F12
:1012000005C0662371F096E8862F70E060E02AF052
:101210009A95660F771F881FDAF7880F969587953E
:1012200097F9089597F99F6780E870E060E0089566
:101230009FEF80EC089500240A94161617061806EE
:101240000906089500240A941216130614060506CA
:101250000895092E0394000C11F4882352F0BB0F5B
:1012600040F4BF2B11F460FF04C06F5F7F4F8F4FBE
:101270009F4F089557FD9058440F551F59F05F3FF9
:1012800071F04795880F97FB991F61F09F3F79F0A8
:1012900087950895121613061406551FF2CF46952A
:1012A000F1DF08C0161617061806991FF1CF8695AC
:1012B0007105610508940895E894BB276627772790
:1012C000CB0197F908950E9476090C9429090E9490
:1012D0001B0938F00E94220920F0952311F00C948C
:1012E00012090C94180911240C945D090E943A0902
:1012F00070F3959FC1F3950F50E0551F629FF00169
:10130000729FBB27F00DB11D639FAA27F00DB11D81
:10131000AA1F649F6627B00DA11D661F829F22270A
:10132000B00DA11D621F739FB00DA11D621F839F91
:10133000A00D611D221F749F3327A00D611D231F67
:10134000849F600D211D822F762F6A2F11249F57B5
:1013500050409AF0F1F088234AF0EE0FFF1FBB1FB8
:10136000661F771F881F91505040A9F79E3F510577
:1013700080F00C9412090C945D095F3FE4F3983EF1
:10138000D4F3869577956795B795F795E7959F5F21
:10139000C1F7FE2B880F911D9695879597F90895B3
:1013A000FA01EE0FFF1F309621053105A1F16115FD
:1013B000710561F48038BFE39B0749F16894903868
:1013C000810561F08038BFEF9B0741F099234AF512
:1013D000FF3FE1053105210519F1E8940894E795EF
:1013E000D901AA2329F4AB2FBE2FF85FD0F310C088
:1013F000FF5F70F4A695E0F7F73950F019F0FF3A67
:1014000038F49F779F930DD00F9007FC9058089564
:1014100046F00C94180960E070E080E89FE30895BE
:101420004FE79F775F934F933F932F930E94CB0A91
:101430002F913F914F915F910E9463090C94280A6C
:1014400029F416F00C9412090C945C090C941809F8
:101450000E944209A8F39638A0F707F80F92E89483
:101460002BE33AEA48EB5FE70E9479090F920F926B
:101470000F924DB75EB70F920E94130BE2E9F0E0B6
:101480000E945A0A4F915F91EF91FF91E595EE1FEF
:10149000FF1F49F0FE57E0684427EE0F441FFA95FE
:1014A000E1F74195550B0E948D0A0F9007FE0C94B1
:1014B000810A0895DF93CF931F930F93FF92EF92CA
:1014C000DF927B018C01689406C0DA2EEF010E9446
:1014D0007609FE01E894A5912591359145915591A4
:1014E000A6F3EF010E94D807FE019701A801DA9444
:1014F00069F7DF90EF90FF900F911F91CF91DF91EF
:1015000008959B01AC0160E070E080E89FE30C94DB
:101510002D080C9412090C94470B0E944209D8F331
:101520009923C9F3940F511DA3F39150504094F0A7
:1015300059F0882332F0660F771F881F9150504072
:10154000C1F79E3F51052CF7880F911D9695879501
:1015500097F908955F3FACF0983E9CF0BB278695C5
:1015600077956795B79508F4B1609395C1F7BB0F70
:1015700058F711F460FFE8CF6F5F7F4F8F4F9F4F99
:10158000E3CF0C945D0916F00C94470B0C941809EA
:1015900068940C9412090E944209A8F39923C1F39C
:1015A000AEF3DF93CF931F930F93FF92C92FDD27E5
:1015B00088232AF02197660F771F881FDAF720E02B
:1015C00030E040E85FEB9FE3883920F0803E38F060
:1015D00021968F770E94C107EAEBF0E004C00E94D9
:1015E000C107E7EEF0E00E945A0A8B01BE01EC0150
:1015F000FB2E6F5771097595771F880B990B0E9409
:10160000D70828E132E741E35FE30E947609AF2D76
:101610009801AE01FF900F911F91CF91DF910E9431
:10162000D8070C942909FA01DC01AA0FBB1F9B0102
:10163000AC01BF5728F4222733274427507820C015
:10164000B75190F4AB2F0024469537952795011C90
:10165000A395D2F3002071F0220F331F441FB395DE
:10166000DAF30ED00C94C00761307105A0E88A0748
:10167000B94630F49B01AC0166277727882790781C
:10168000309621F0208331834283538308959F3F16
:1016900031F0915020F4879577956795B795880F2D
:0E16A000911D9695879597F90895F894FFCFC0
:1016AE002B002A000102003F065B4F666D7D077F0F
:0216BE006F00BB
:00000001FF
