:100000000C9434000C943E000C943E000C943E0082
:100010000C943E000C943E000C943E000C943E0068
:100020000C943E000C943E000C943E000C943E0058
:100030000C943E000C943E000C943E000C943E0048
:100040000C943E000C943E000C943E000C943E0038
:100050000C943E000C943E000C943E000C943E0028
:100060000C943E000C943E0011241FBECFEFD8E04C
:10007000DEBFCDBF0E94AE010C94F1010C940000D4
:1000800080E480937C0087E880937A0008959091C3
:100090007C00987F8770892B80937C0080917A0008
:1000A000806480937A0080917A0086FDFCCF8091F5
:1000B000780090917900089590E0019645E0489F7E
:1000C0009001499F300D112485E0359527958A953B
:1000D000E1F781E090E001C0880F2A95EAF78150AE
:1000E00085B908951092C50087E68093C400E0ECBE
:1000F000F0E080818D7F8083E1ECF0E08081886991
:10010000808380818B7F8083E2ECF0E08081866059
:10011000808308958091C00085FD03C00E94360150
:10012000F9CF88E78093C60008958091C00087FFCB
:1001300008C08091C00085FF04C08091C6008093F4
:10014000C60008958091C00087FFFCCF8091C60053
:100150000895EF92FF920F931F93CF93DF93182F81
:10016000E92E062F0E94A200F12EC12FDE2D10E0F5
:10017000015011092C2F2F198A3041F41882DF9178
:10018000CF911F910F91FF90EF90089530E02017CD
:100190003107A4F789930E94A200ECCF9091C00090
:1001A00095FFFCCF8093C6000895CF93DF93EC01B9
:1001B0008991882319F00E94CE00FACFDF91CF9168
:1001C00008950F931F93CF93DF93CDB7DEB72A9790
:1001D0000FB6F894DEBF0FBECDBF8C011A86009714
:1001E00021F480E30E94CE0018C097FF06C08DE284
:1001F0000E94CE00119501951109FE013A962AE060
:1002000030E0C801B9010E94C901805D82938B0171
:10021000672BB9F7CF010E94D5002A960FB6F89444
:10022000DEBF0FBECDBFDF91CF911F910F9108951B
:100230002FEF89E698E1215080409040E1F700C01F
:1002400000002D9A2FEF83EC99E0215080409040E0
:10025000E1F700C000002D982FEF89E698E12150CA
:1002600080409040E1F700C0000008952FEF89E63C
:1002700098E1215080409040E1F700C000002D9AA5
:100280002FEF83EC99E0215080409040E1F700C0CF
:1002900000002D982FEF83EC99E021508040904092
:1002A000E1F700C000002D9A2FEF83EC99E0215078
:1002B00080409040E1F700C000002D982FEF89E6C4
:1002C00098E1215080409040E1F700C0000008957F
:1002D0002FEF89E698E1215080409040E1F700C07F
:1002E00000002D9A2FEF83EC99E021508040904040
:1002F000E1F700C000002D982FEF83EC99E021502A
:1003000080409040E1F700C000002D9A2FEF83EC71
:1003100099E0215080409040E1F700C000002D9806
:100320002FEF83EC99E0215080409040E1F700C02E
:1003300000002D9A2FEF83EC99E0215080409040EF
:10034000E1F700C000002D982FEF89E698E12150D9
:1003500080409040E1F700C0000008958FEF84B91D
:100360000E9472000E94400080E00E94470025E049
:10037000969587952A95E1F799270E94E1002FEF3E
:1003800081EE94E0215080409040E1F700C00000F1
:10039000EBCF97FB072E16F4009407D077FD09D01A
:1003A0000E94DD0107FC05D03EF4909581959F4F9A
:1003B0000895709561957F4F0895AA1BBB1B51E16D
:1003C00007C0AA1FBB1FA617B70710F0A61BB70BC5
:1003D000881F991F5A95A9F780959095BC01CD016A
:0603E0000895F894FFCF20
:00000001FF
