:100000000C948A000C949F000C949F000C949F0009
:100010000C949F000C949F000C949F000C949F00E4
:100020000C949F000C949F000C949F000C949F00D4
:100030000C949F000C949F000C949F000C949F00C4
:100040000C949F000C949F000C949F000C949F00B4
:100050000C949F000C949F000C949F000C949F00A4
:100060000C949F000C949F00AB02CB02AE02CB021B
:10007000B102CB02B402CB02B702CB02BA02CB026E
:10008000BD02CB02C002CB02C302CB02C602CB022E
:10009000C90207634236B79BD8A71A39685618AE0B
:1000A000BAAB558C1D3CB7CC5763BD6DEDFD753EAD
:1000B000F6177231BF000000803F08000000BE92BA
:1000C0002449123EABAAAA2ABECDCCCC4C3E00009D
:1000D0000080BEABAAAAAA3E00000000BF0000003C
:1000E000803F0000000000084178D3BB4387D11354
:1000F0003D190E3CC3BD4282AD2B3E68EC8276BEFC
:10010000D98FE1A93E4C80EFFFBE01C4FF7F3F00C5
:100110000000000011241FBECFEFD8E0DEBFCDBF2E
:1001200011E0A0E0B1E0ECE7F5E102C005900D922E
:10013000AA30B107D9F70E9428060C94BC0A0C9487
:100140000000E82FF0E0E050FF4F80818BB9089568
:10015000E82FF0E0E050FF4F8081982F969595B9F9
:1001600080FD5F9A08951092C50087E68093C400D1
:10017000E0ECF0E080818D7F8083E1ECF0E0808135
:100180008869808380818B7F8083E2ECF0E08081CE
:100190008660808308958091C00085FD03C00E9421
:1001A0007701F9CF88E78093C60008958091C00059
:1001B00087FF08C08091C00085FF04C08091C60001
:1001C0008093C60008958091C00087FFFCCF809186
:1001D000C6000895EF92FF920F931F93CF93DF9382
:1001E000182FE92E062F0E94E300F12EC12FDE2DDD
:1001F00010E0015011092C2F2F198A3041F4188278
:10020000DF91CF911F910F91FF90EF90089530E013
:1002100020173107A4F789930E94E300ECCF909157
:10022000C00095FFFCCF8093C6000895CF93DF9365
:10023000EC018991882319F00E940F01FACFDF9118
:10024000CF9108950F931F93CF93DF93CDB7DEB770
:100250002A970FB6F894DEBF0FBECDBF8C011A8669
:10026000009721F480E30E940F0118C097FF06C099
:100270008DE20E940F01119501951109FE013A9638
:100280002AE030E0C801B9010E949606805D8293A1
:100290008B01672BB9F7CF010E9416012A960FB682
:1002A000F894DEBF0FBECDBFDF91CF911F910F91AC
:1002B00008952FEF89E698E1215080409040E1F7C2
:1002C00000C000002D9A2FEF83EC99E02150804070
:1002D0009040E1F700C000002D982FEF89E698E1EB
:1002E000215080409040E1F700C0000008952FEFBA
:1002F00089E698E1215080409040E1F700C000007D
:100300002D9A2FEF83EC99E0215080409040E1F747
:1003100000C000002D982FEF83EC99E02150804021
:100320009040E1F700C000002D9A2FEF83EC99E098
:10033000215080409040E1F700C000002D982FEF41
:1003400089E698E1215080409040E1F700C000002C
:1003500008952FEF89E698E1215080409040E1F721
:1003600000C000002D9A2FEF83EC99E021508040CF
:100370009040E1F700C000002D982FEF83EC99E04A
:10038000215080409040E1F700C000002D9A2FEFEF
:1003900083EC99E0215080409040E1F700C00000DC
:1003A0002D982FEF83EC99E0215080409040E1F7A9
:1003B00000C000002D9A2FEF83EC99E0215080407F
:1003C0009040E1F700C000002D982FEF89E698E1FA
:1003D000215080409040E1F700C00000089594B1A2
:1003E0009C6294B92498837080658CBD8CB544233D
:1003F00011F0806201C08F7D8CBD8DB5611102C08E
:100400008E7F01C081608DBD08958EBD0DB407FE45
:10041000FDCF08950DB407FEFDCF8EB508958EBDB6
:100420000DB407FEFDCF8EB5089588E48093B80023
:100430001092B90008958091BC0087FFFCCF089509
:1004400084EA8093BC000C941B0284E98093BC0076
:100450008091BC0084FDFCCF08958093BB0084E8AC
:100460008093BC000C941B0284EC8093BC000E941F
:100470001B028091BB00089584E88093BC000E9419
:100480001B028091BB000895880F862B0C942D02CF
:100490008091B9000895EF92FF920F931F93CF932D
:1004A000DF93EC010E9415020E9420020E94480284
:1004B0008830E1F560E087E70E9444020E9448022C
:1004C0008831A1F58AEA0E942D020E9448028832F2
:1004D00069F50E9425020E9420020E94480288308D
:1004E00029F561E087E70E9444020E9448028034B7
:1004F000E9F48AEAE82EF12C0E943402182F0E94B7
:100500004802803599F48EEBE816F10441F40E941C
:100510003C02082F0E944802883581F007C00E94E3
:100520003402082F0E944802803541F0DF91CF91BC
:100530001F910F91FF90EF900C944802802F90E054
:10054000912BF701EA5AF109E531F10520F5EC5C50
:10055000FF4F0C94EB06998388831DC09B838A838D
:100560001AC09D838C8317C09F838E8314C0998784
:10057000888711C09B878A870EC09D878C870BC098
:100580009F878E8708C0998B888B05C09B8B8A8B31
:1005900002C09D8B8C8B82E0E80EF11C80ECE8168B
:1005A000F10409F0A9CF0E94250280E0DF91CF91EC
:1005B0001F910F91FF90EF9008950F931F93CF938A
:1005C000DF938C010E9415020E9420020E944802C3
:1005D000883009F053C060E087E70E9444020E941F
:1005E0004802883109F04AC084EF0E942D020E941F
:1005F0004802883209F042C08EE20E942D020E9419
:1006000048028832D9F50E9425028FE496E40197CA
:10061000F1F700C000000E9420020E9448028830CA
:1006200069F560E087E70E9444020E944802883131
:1006300029F586EF0E942D020E9448028832F1F4CB
:100640000E9425020E9420020E9448028830B1F4D4
:1006500061E087E70E9444020E944802803471F4FE
:100660000E943402D82F0E944802803539F40E943B
:100670003C02C82F0E944802883531F0DF91CF91AB
:100680001F910F910C9448020E9425028C2F90E03C
:100690009D2BF8019183808380E0DF91CF911F91A2
:1006A0000F910895CF92DF92EF92FF920F931F93D5
:1006B000CF93DF93EB01FA0122853385821B930BE5
:1006C0009C01A085B1850E94F1066B017C018FE041
:1006D000F594E794D794C7948A95D1F76289738982
:1006E000CB01770FAA0BBB0BBC01CD012BE0660F32
:1006F000771F881F991F2A95D1F724893589890189
:10070000330F220B330BA90198012C0D3D1D4E1DFB
:100710005F1D0E94CC06C20ED31EE41EF51EC882C9
:10072000D982EA82FB8288E0C80ED11CE11CF11C50
:10073000C701B60134E095958795779567953A9509
:10074000D1F70E943E0820E030E040E251E40E94F0
:100750009407DF91CF911F910F91FF90EF90DF9061
:10076000CF900895DF92EF92FF920F931F93CF9354
:10077000DF93F82EEB010E9415020E9420020E94D6
:100780004802883009F080C060E087E70E94440298
:100790000E944802883109F077C084EF0E942D0240
:1007A0000E944802883209F06FC00F2D10E0C80186
:1007B00036E0880F991F3A95E1F784630E942D0275
:1007C0000E944802883209F05FC00E94250221E0A1
:1007D000F216A9F0F21670F082E0F816A9F093E094
:1007E000F91218C09FEB2EE381E091502040804029
:1007F000E1F70EC08FE496E40197F1F709C08FE2AC
:1008000095E70197F1F704C08FEE92ED0197F1F7AC
:1008100000C000000E9420020E9448028830A1F51A
:1008200060E087E70E9444020E944802883161F537
:1008300086EF0E942D020E944802883229F50E940C
:1008400025020E9420020E9448028830E9F461E0FB
:1008500087E70E9444020E9448028034A9F40E9463
:100860003402D82E0E944802803571F40E9434026E
:10087000F82E0E944802803539F40E943C02E82E8E
:100880000E944802883549F0DF91CF911F910F9166
:10089000FF90EF90DF900C9448020E9425028F2D6C
:1008A00090E09D29A0E0B0E0BA2FA92F982F8827CB
:1008B0008E2928E030E0201B310B04C0B695A795A7
:1008C000979587952A95D2F788839983AA83BB83C6
:1008D00080E0DF91CF911F910F91FF90EF90DF901B
:1008E00008954F925F926F927F928F929F92AF92F4
:1008F000BF92CF92DF92EF92FF920F931F93CF930D
:10090000DF93CDB7DEB729970FB6F894DEBF0FBEE1
:10091000CDBF69837A838B839C832987F801DA01B1
:10092000CD90DD90ED90FC90B0EACB1ABFE0DB0AF1
:10093000E108F108A7019601C701B6010E948606E9
:100940002B013C01ACE07594679457944794AA95A9
:10095000D1F700811181A481B5810E940B074B0161
:100960005C01BDE0B594A79497948794BA95D1F7AC
:10097000A485B585A30192010E940B07BB2797FDB3
:10098000B095AB2F880D991DAA1DBB1D0296A11D08
:10099000B11D32E0B595A795979587953A95D1F712
:1009A0009C01AD0130584F4F5F4FA681B7810E9427
:1009B00000074B015C014FE0B694A794979487948D
:1009C0004A95D1F7A685B785A30192010E940B072E
:1009D0009B01AC016BE055954795379527956A9536
:1009E000D1F72D833E834F835887A281B381A7011E
:1009F00096010E940B07DC01CB017BE0B595A79522
:100A0000979587957A95D1F72D813E814F815885AD
:100A1000820F931FA41FB51F012E000C220B330B56
:100A2000E2E0000F111F221F331FEA95D1F7080FD4
:100A3000191F2A1F3B1F098404C0000F111F221F0A
:100A4000331F0A94D2F70E5F1F4F2F4F3F4FF2E034
:100A50003595279517950795FA95D1F789819A814C
:100A6000AB81BC81801B910BA20BB30B9C01AD0130
:100A700080E593ECA0E0B0E0BC01CD01098404C0A6
:100A800095958795779567950A94D2F70E94860683
:100A900097FD0BC0660F771F881F991FA501940152
:100AA0000E94AA0649015A010AC0A50194010E94A8
:100AB000AA0649015A01880C991CAA1CBB1C99273B
:100AC000B7FC9A958B2D7A2D692D9B01AC010E9464
:100AD00086069B01AC01AEEDBBE00E9400076B01F6
:100AE0007C01A3E4B3EEA50194010E940E07BB278D
:100AF00097FDB095AB2F6701FF24D7FCF094EF2C46
:100B00008C0D9D1DAE1DBF1D8153914FAF4FBF4F2B
:100B100044E0B595A795979587954A95D1F7BC017F
:100B2000CD01680D791D8A1D9B1D29960FB6F8947D
:100B3000DEBF0FBECDBFDF91CF911F910F91FF9010
:100B4000EF90DF90CF90BF90AF909F908F907F906D
:100B50006F905F904F900895DF92EF92FF920F9306
:100B60001F93CF93DF93CDB7DEB72A970FB6F894D4
:100B7000DEBF0FBECDBFD82E7B018A01CE01099604
:100B80000E94DD0281112AC0BE016B5F7F4F8D2D57
:100B90000E94B203811124C019821A821B821C8216
:100BA000A801BE016F5F7F4F89859A850E9452031D
:100BB000F70160837183828393836D817E818F814E
:100BC00098852D2DAE014F5F5F4F0E947104F70194
:100BD000648375838683978380E003C081E001C0CE
:100BE00082E02A960FB6F894DEBF0FBECDBFDF912C
:100BF000CF911F910F91FF90EF90DF9008950E9489
:100C00003E0823EC37EC45EF5BE30E94CA080895E9
:100C10000E943E0820E836EE45EC57E40E94940717
:100C20002EEA3CED42E45EE30E9437099B01AC01F1
:100C300060E070E080E89FE30E94270720E03AE24E
:100C40004DE257E40E94CA080E940608CB010895AD
:100C5000CF92DF92EF92FF921F93CF93DF93CDB7A6
:100C6000DEB76E970FB6F894DEBF0FBECDBF8FEF25
:100C70008AB984B9CE0101960E944B02811136C017
:100C800010E0E12CF12C8AE0C82ED12CC701B6016E
:100C90000E9496069B013327F901E050FF4F908197
:100CA0009BB90E94A8001F5F8FE39CE90197F1F7B1
:100CB00000C00000123351F7AE014F5F5F4FBE011D
:100CC000695E7F4F81E00E94AC0581110DC020E07C
:100CD00030E040E051E46F89788D898D9A8D0E94D3
:100CE00027070E9406087B0110E0D0CF80E090E04B
:100CF0006E960FB6F894DEBF0FBECDBFDF91CF91D9
:100D00001F91FF90EF90DF90CF900895DB018F93BC
:100D10009F930E940007BF91AF91A29F800D911DEC
:100D2000A39F900DB29F900D1124089597FB072E5D
:100D300016F4009407D077FD09D00E94130707FC32
:100D400005D03EF4909581959F4F089570956195DB
:100D50007F4F0895A1E21A2EAA1BBB1BFD010DC0F7
:100D6000AA1FBB1FEE1FFF1FA217B307E407F5075B
:100D700020F0A21BB30BE40BF50B661F771F881F37
:100D8000991F1A9469F760957095809590959B01CD
:100D9000AC01BD01CF010895052E97FB1EF4009410
:100DA0000E94E30657FD07D00E94AA0607FC03D065
:100DB0004EF40C94E30650954095309521953F4FA5
:100DC0004F4F5F4F089590958095709561957F4F37
:100DD0008F4F9F4F0895EE0FFF1F0590F491E02D68
:100DE0000994A29FB001B39FC001A39F700D811D04
:100DF0001124911DB29F700D811D1124911D089524
:100E00000E94F106A59F900DB49F900DA49F800DA8
:100E1000911D11240895B7FF0C9400070E9400074C
:100E2000821B930B0895AA1BBB1B51E107C0AA1F8D
:100E3000BB1FA617B70710F0A61BB70B881F991F7B
:100E40005A95A9F780959095BC01CD010895505809
:100E5000BB27AA270E943F070C9490080E94820893
:100E600038F00E94890820F039F49F3F19F426F4E5
:100E70000C947F080EF4E095E7FB0C947908E92FB9
:100E80000E94A10858F3BA176207730784079507F1
:100E900020F079F4A6F50C94C3080EF4E0950B2E1F
:100EA000BA2FA02D0B01B90190010C01CA01A001BC
:100EB0001124FF27591B99F0593F50F4503E68F117
:100EC0001A16F040A22F232F342F4427585FF3CF58
:100ED000469537952795A795F0405395C9F77EF429
:100EE0001F16BA0B620B730B840BBAF09150A1F072
:100EF000FF0FBB1F661F771F881FC2F70EC0BA0FF8
:100F0000621F731F841F48F4879577956795B7957F
:100F1000F7959E3F08F0B0CF9395880F08F099277A
:100F2000EE0F9795879508950E94A8070C94900856
:100F30000E94890858F00E94820840F029F45F3F1F
:100F400029F00C94790851110C94C4080C947F0872
:100F50000E94A10868F39923B1F3552391F3951BDF
:100F6000550BBB27AA2762177307840738F09F5FCA
:100F70005F4F220F331F441FAA1FA9F335D00E2E37
:100F80003AF0E0E832D091505040E695001CCAF7A4
:100F90002BD0FE2F29D0660F771F881FBB1F261767
:100FA00037074807AB07B0E809F0BB0B802DBF013E
:100FB000FF2793585F4F3AF09E3F510578F00C940D
:100FC00079080C94C4085F3FE4F3983ED4F3869507
:100FD00077956795B795F7959F5FC9F7880F911D2E
:100FE0009695879597F90895E1E0660F771F881F1A
:100FF000BB1F621773078407BA0720F0621B730BCD
:10100000840BBA0BEE1F88F7E09508950E940D0837
:101010006894B1110C94C40808950E94A90888F03E
:101020009F5798F0B92F9927B751B0F0E1F0660FAC
:10103000771F881F991F1AF0BA95C9F714C0B130ED
:1010400091F00E94C308B1E008950C94C308672F83
:10105000782F8827B85F39F0B93FCCF3869577951C
:101060006795B395D9F73EF4909580957095619505
:101070007F4F8F4F9F4F0895E89409C097FB3EF430
:1010800090958095709561957F4F8F4F9F4F9923D5
:10109000A9F0F92F96E9BB279395F6958795779553
:1010A0006795B795F111F8CFFAF4BB0F11F460FF13
:1010B0001BC06F5F7F4F8F4F9F4F16C0882311F06B
:1010C00096E911C0772321F09EE8872F762F05C07F
:1010D000662371F096E8862F70E060E02AF09A951A
:1010E000660F771F881FDAF7880F9695879597F90F
:1010F000089597F99F6780E870E060E008959FEF9A
:1011000080EC089500240A9416161706180609069E
:10111000089500240A94121613061406050608956D
:10112000092E0394000C11F4882352F0BB0F40F4F5
:10113000BF2B11F460FF04C06F5F7F4F8F4F9F4F35
:10114000089557FD9058440F551F59F05F3F71F0B7
:101150004795880F97FB991F61F09F3F79F087951E
:101160000895121613061406551FF2CF4695F1DFA7
:1011700008C0161617061806991FF1CF8695710537
:10118000610508940895E894BB2766277727CB016B
:1011900097F908950E94DD080C9490080E94820837
:1011A00038F00E94890820F0952311F00C947908FA
:1011B0000C947F0811240C94C4080E94A10870F3B9
:1011C000959FC1F3950F50E0551F629FF001729FEC
:1011D000BB27F00DB11D639FAA27F00DB11DAA1FFB
:1011E000649F6627B00DA11D661F829F2227B00D48
:1011F000A11D621F739FB00DA11D621F839FA00DD3
:10120000611D221F749F3327A00D611D231F849F22
:10121000600D211D822F762F6A2F11249F57504079
:101220009AF0F1F088234AF0EE0FFF1FBB1F661FF4
:10123000771F881F91505040A9F79E3F510580F0BD
:101240000C9479080C94C4085F3FE4F3983ED4F3FF
:10125000869577956795B795F795E7959F5FC1F761
:10126000FE2B880F911D9695879597F90895FA01A1
:10127000EE0FFF1F309621053105A1F161157105B3
:1012800061F48038BFE39B0749F168949038810589
:1012900061F08038BFEF9B0741F099234AF5FF3F8B
:1012A000E1053105210519F1E8940894E795D90184
:1012B000AA2329F4AB2FBE2FF85FD0F310C0FF5F35
:1012C00070F4A695E0F7F73950F019F0FF3A38F4CA
:1012D0009F779F930DD00F9007FC9058089546F08C
:1012E0000C947F0860E070E080E89FE308954FE78A
:1012F0009F775F934F933F932F930E94320A2F91D2
:101300003F914F915F910E94CA080C948F0929F474
:1013100016F00C9479080C94C3080C947F080E9472
:10132000A908A8F39638A0F707F80F92E8942BE3E2
:101330003AEA48EB5FE70E94E0080F920F920F92A3
:101340004DB75EB70F920E947A0AE2E9F0E00E9480
:10135000C1094F915F91EF91FF91E595EE1FFF1F3E
:1013600049F0FE57E0684427EE0F441FFA95E1F775
:101370004195550B0E94F4090F9007FE0C94E80963
:101380000895DF93CF931F930F93FF92EF92DF9215
:101390007B018C01689406C0DA2EEF010E94DD0803
:1013A000FE01E894A5912591359145915591A6F3BB
:1013B000EF010E943F07FE019701A801DA9469F747
:1013C000DF90EF90FF900F911F91CF91DF910895E3
:1013D0009B01AC0160E070E080E89FE30C9494070F
:1013E0000C9479080C94AE0A0E94A908D8F39923AA
:1013F000C9F3940F511DA3F39150504094F059F04C
:10140000882332F0660F771F881F91505040C1F734
:101410009E3F51052CF7880F911D9695879597F95A
:1014200008955F3FACF0983E9CF0BB27869577957A
:101430006795B79508F4B1609395C1F7BB0F58F75E
:1014400011F460FFE8CF6F5F7F4F8F4F9F4FE3CF67
:101450000C94C40816F00C94AE0A0C947F0868949F
:101460000C9479080E94A908A8F39923C1F3AEF35C
:10147000DF93CF931F930F93FF92C92FDD2788230C
:101480002AF02197660F771F881FDAF720E030E0F7
:1014900040E85FEB9FE3883920F0803E38F02196EA
:1014A0008F770E942807EAEBF0E004C00E9428072B
:1014B000E7EEF0E00E94C1098B01BE01EC01FB2EBA
:1014C0006F5771097595771F880B990B0E943E081D
:1014D00028E132E741E35FE30E94DD08AF2D980188
:1014E000AE01FF900F911F91CF91DF910E943F07B6
:1014F0000C949008FA01DC01AA0FBB1F9B01AC0100
:10150000BF5728F4222733274427507820C0B751EB
:1015100090F4AB2F0024469537952795011CA39591
:10152000D2F3002071F0220F331F441FB395DAF37A
:101530000ED00C94270761307105A0E88A07B946E0
:1015400030F49B01AC016627772788279078309686
:1015500021F0208331834283538308959F3F31F0EC
:10156000915020F4879577956795B795880F911DD1
:0C1570009695879597F90895F894FFCFA1
:0A157C003F065B4F666D7D077F6F31
:00000001FF
