:100000000C9434000C9448000C9446000C94460068
:100010000C9446000C9446000C9446000C94460048
:100020000C9446000C9446000C9446000C94460038
:100030000C9446000C9446000C9446000C94460028
:100040000C9446000C9446000C9446000C94460018
:100050000C9446000C9446000C9446000C94460008
:100060000C9446000C94460011241FBECFEFD8E03C
:10007000DEBFCDBF21E0A0E0B1E001C01D92A830FD
:10008000B207E1F70E949F010C94A2010C940000BA
:100090001F920F920FB60F9211244F935F936F939D
:1000A0007F938F939F93AF93BF938091040190911F
:1000B0000501A0910601B091070140910001509106
:1000C00001016091020170910301841B950BA60B45
:1000D000B70B85369105A105B10524F09BB188E0E9
:1000E00089278BB98091040190910501A0910601A7
:1000F000B09107018093000190930101A093020148
:10010000B0930301BF91AF919F918F917F916F91B8
:100110005F914F910F900FBE0F901F901895259AE9
:10012000539A5298E9E6F0E0808181608083E89AF2
:10013000789408951092C50087E68093C400E0EC9F
:10014000F0E080818D7F8083E1ECF0E08081886940
:10015000808380818B7F8083E2ECF0E08081866009
:10016000808308958091C00085FD03C00E9427010F
:10017000F9CF88E78093C60008958091C00087FF7B
:1001800008C08091C00085FF04C08091C6008093A4
:10019000C60008958091C00087FFFCCF8091C60003
:1001A0000895EF92FF920F931F93CF93DF93182F31
:1001B000E92E062F0E94CA00F12EC12FDE2D10E07D
:1001C000015011092C2F2F198A3041F41882DF9128
:1001D000CF911F910F91FF90EF90089530E020177D
:1001E0003107A4F789930E94CA00ECCF9091C00018
:1001F00095FFFCCF8093C6000895CF93DF93EC0169
:100200008991882319F00E94F600FACFDF91CF91EF
:1002100008952FEF89E698E1215080409040E1F762
:1002200000C000002D9A2FEF83EC99E02150804010
:100230009040E1F700C000002D982FEF89E698E18B
:10024000215080409040E1F700C0000008952FEF5A
:1002500089E698E1215080409040E1F700C000001D
:100260002D9A2FEF83EC99E0215080409040E1F7E8
:1002700000C000002D982FEF83EC99E021508040C2
:100280009040E1F700C000002D9A2FEF83EC99E039
:10029000215080409040E1F700C000002D982FEFE2
:1002A00089E698E1215080409040E1F700C00000CD
:1002B00008952FEF89E698E1215080409040E1F7C2
:1002C00000C000002D9A2FEF83EC99E02150804070
:1002D0009040E1F700C000002D982FEF83EC99E0EB
:1002E000215080409040E1F700C000002D9A2FEF90
:1002F00083EC99E0215080409040E1F700C000007D
:100300002D982FEF83EC99E0215080409040E1F749
:1003100000C000002D9A2FEF83EC99E0215080401F
:100320009040E1F700C000002D982FEF89E698E19A
:10033000215080409040E1F700C0000008950E94E5
:080340008F00FFCFF894FFCFFE
:00000001FF
